{
  "contractName": "SuretyBond",
  "abi": [
    {
      "constant": true,
      "inputs": [],
      "name": "maturation_interval",
      "outputs": [
        {
          "name": "",
          "type": "uint256"
        }
      ],
      "payable": false,
      "stateMutability": "view",
      "type": "function"
    },
    {
      "constant": true,
      "inputs": [],
      "name": "obligee",
      "outputs": [
        {
          "name": "",
          "type": "address"
        }
      ],
      "payable": false,
      "stateMutability": "view",
      "type": "function"
    },
    {
      "constant": true,
      "inputs": [],
      "name": "instantiated_at",
      "outputs": [
        {
          "name": "",
          "type": "uint256"
        }
      ],
      "payable": false,
      "stateMutability": "view",
      "type": "function"
    },
    {
      "constant": true,
      "inputs": [],
      "name": "price",
      "outputs": [
        {
          "name": "",
          "type": "uint256"
        }
      ],
      "payable": false,
      "stateMutability": "view",
      "type": "function"
    },
    {
      "constant": true,
      "inputs": [],
      "name": "insurance_price",
      "outputs": [
        {
          "name": "",
          "type": "uint256"
        }
      ],
      "payable": false,
      "stateMutability": "view",
      "type": "function"
    },
    {
      "constant": true,
      "inputs": [],
      "name": "principal",
      "outputs": [
        {
          "name": "",
          "type": "address"
        }
      ],
      "payable": false,
      "stateMutability": "view",
      "type": "function"
    },
    {
      "constant": true,
      "inputs": [],
      "name": "stage",
      "outputs": [
        {
          "name": "",
          "type": "uint8"
        }
      ],
      "payable": false,
      "stateMutability": "view",
      "type": "function"
    },
    {
      "constant": true,
      "inputs": [],
      "name": "insurer",
      "outputs": [
        {
          "name": "",
          "type": "address"
        }
      ],
      "payable": false,
      "stateMutability": "view",
      "type": "function"
    },
    {
      "inputs": [
        {
          "name": "_price",
          "type": "uint256"
        },
        {
          "name": "_insurance_price",
          "type": "uint256"
        },
        {
          "name": "_obligee",
          "type": "address"
        },
        {
          "name": "_principal",
          "type": "address"
        },
        {
          "name": "_insurer",
          "type": "address"
        },
        {
          "name": "_maturation_interval",
          "type": "uint256"
        }
      ],
      "payable": false,
      "stateMutability": "nonpayable",
      "type": "constructor"
    },
    {
      "constant": false,
      "inputs": [],
      "name": "fund",
      "outputs": [],
      "payable": true,
      "stateMutability": "payable",
      "type": "function"
    },
    {
      "constant": true,
      "inputs": [],
      "name": "buyPrice",
      "outputs": [
        {
          "name": "",
          "type": "uint256"
        }
      ],
      "payable": false,
      "stateMutability": "view",
      "type": "function"
    },
    {
      "constant": false,
      "inputs": [],
      "name": "buy",
      "outputs": [],
      "payable": true,
      "stateMutability": "payable",
      "type": "function"
    },
    {
      "constant": false,
      "inputs": [],
      "name": "approveInsuranceClaim",
      "outputs": [],
      "payable": false,
      "stateMutability": "nonpayable",
      "type": "function"
    },
    {
      "constant": false,
      "inputs": [],
      "name": "finish",
      "outputs": [],
      "payable": false,
      "stateMutability": "nonpayable",
      "type": "function"
    }
  ],
  "bytecode": "0x60806040526000600760006101000a81548160ff0219169083600181111561002357fe5b021790555034801561003457600080fd5b5060405160c08061094b833981018060405281019080805190602001909291908051906020019092919080519060200190929190805190602001909291908051906020019092919080519060200190929190505050856000819055508460018190555083600260006101000a81548173ffffffffffffffffffffffffffffffffffffffff021916908373ffffffffffffffffffffffffffffffffffffffff16021790555082600360006101000a81548173ffffffffffffffffffffffffffffffffffffffff021916908373ffffffffffffffffffffffffffffffffffffffff16021790555081600460006101000a81548173ffffffffffffffffffffffffffffffffffffffff021916908373ffffffffffffffffffffffffffffffffffffffff16021790555080600581905550426006819055505050505050506107ce8061017d6000396000f3006080604052600436106100c5576000357c0100000000000000000000000000000000000000000000000000000000900463ffffffff1680633f9dc25e146100ca57806353493d2b146100f55780636edaa6dc1461010c5780638620410b146101635780638796f84a1461018e578063a035b1fe146101b9578063a1189771146101e4578063a6f2ae3a1461020f578063b60d428814610219578063ba5d307814610223578063c040e6b81461027a578063d56b2889146102b3578063dbc837c5146102ca575b600080fd5b3480156100d657600080fd5b506100df610321565b6040518082815260200191505060405180910390f35b34801561010157600080fd5b5061010a610327565b005b34801561011857600080fd5b5061012161045b565b604051808273ffffffffffffffffffffffffffffffffffffffff1673ffffffffffffffffffffffffffffffffffffffff16815260200191505060405180910390f35b34801561016f57600080fd5b50610178610481565b6040518082815260200191505060405180910390f35b34801561019a57600080fd5b506101a361048f565b6040518082815260200191505060405180910390f35b3480156101c557600080fd5b506101ce610495565b6040518082815260200191505060405180910390f35b3480156101f057600080fd5b506101f961049b565b6040518082815260200191505060405180910390f35b6102176104a1565b005b6102216105e8565b005b34801561022f57600080fd5b50610238610656565b604051808273ffffffffffffffffffffffffffffffffffffffff1673ffffffffffffffffffffffffffffffffffffffff16815260200191505060405180910390f35b34801561028657600080fd5b5061028f61067c565b6040518082600181111561029f57fe5b60ff16815260200191505060405180910390f35b3480156102bf57600080fd5b506102c861068f565b005b3480156102d657600080fd5b506102df61077c565b604051808273ffffffffffffffffffffffffffffffffffffffff1673ffffffffffffffffffffffffffffffffffffffff16815260200191505060405180910390f35b60055481565b600460009054906101000a900473ffffffffffffffffffffffffffffffffffffffff1673ffffffffffffffffffffffffffffffffffffffff163373ffffffffffffffffffffffffffffffffffffffff1614151561038357600080fd5b600260009054906101000a900473ffffffffffffffffffffffffffffffffffffffff1673ffffffffffffffffffffffffffffffffffffffff166108fc6000549081150290604051600060405180830381858888f193505050501580156103ed573d6000803e3d6000fd5b50600460009054906101000a900473ffffffffffffffffffffffffffffffffffffffff1673ffffffffffffffffffffffffffffffffffffffff166108fc6001549081150290604051600060405180830381858888f19350505050158015610458573d6000803e3d6000fd5b50565b600260009054906101000a900473ffffffffffffffffffffffffffffffffffffffff1681565b600060015460005401905090565b60065481565b60005481565b60015481565b600260009054906101000a900473ffffffffffffffffffffffffffffffffffffffff1673ffffffffffffffffffffffffffffffffffffffff163373ffffffffffffffffffffffffffffffffffffffff16141515610566576040517f08c379a00000000000000000000000000000000000000000000000000000000081526004018080602001828103825260078152602001807f6f626c696765650000000000000000000000000000000000000000000000000081525060200191505060405180910390fd5b61056e610481565b3414151561057b57600080fd5b600360009054906101000a900473ffffffffffffffffffffffffffffffffffffffff1673ffffffffffffffffffffffffffffffffffffffff166108fc6000549081150290604051600060405180830381858888f193505050501580156105e5573d6000803e3d6000fd5b50565b600460009054906101000a900473ffffffffffffffffffffffffffffffffffffffff1673ffffffffffffffffffffffffffffffffffffffff163373ffffffffffffffffffffffffffffffffffffffff1614151561064457600080fd5b6000543414151561065457600080fd5b565b600360009054906101000a900473ffffffffffffffffffffffffffffffffffffffff1681565b600760009054906101000a900460ff1681565b600460009054906101000a900473ffffffffffffffffffffffffffffffffffffffff1673ffffffffffffffffffffffffffffffffffffffff163373ffffffffffffffffffffffffffffffffffffffff161415156106eb57600080fd5b4260055460065401111561077a57600460009054906101000a900473ffffffffffffffffffffffffffffffffffffffff1673ffffffffffffffffffffffffffffffffffffffff166108fc3073ffffffffffffffffffffffffffffffffffffffff16319081150290604051600060405180830381858888f19350505050158015610778573d6000803e3d6000fd5b505b565b600460009054906101000a900473ffffffffffffffffffffffffffffffffffffffff16815600a165627a7a723058204200ed0830ab5ba9f7df1095aade67ed931e6eaccc2d9991194fb1416ebb59580029",
  "source": "pragma solidity ^0.4.24;\n\ncontract SuretyBond {\n    \n    uint public price;\n    uint public insurance_price;\n    address public obligee;     //buyer receiving the goods\n    address public principal;   //seller\n    address public insurer;\n    uint public maturation_interval;\n    uint public instantiated_at;\n    \n    enum Stages {\n        INIT,\n        CLOSED\n    }\n    \n    Stages public stage = Stages.INIT;\n    \n    constructor(uint _price, uint _insurance_price, address _obligee, address _principal, address _insurer, uint _maturation_interval) public {\n        price = _price;\n        insurance_price = _insurance_price;\n        obligee = _obligee;\n        principal = _principal;\n        insurer = _insurer;\n        maturation_interval = _maturation_interval;\n        \n        instantiated_at = now;\n    }\n    \n    modifier isInsurer() {\n        require(msg.sender == insurer);\n        _;\n    }\n    \n    modifier isPrincipal() {\n        require(msg.sender == principal);\n        _;\n    }\n    \n    modifier isObligee() {\n        require(msg.sender == obligee, \"obligee\");\n        _;\n    }\n    \n    function fund() public payable isInsurer {\n        require(msg.value == price);\n    }\n    \n    function buyPrice() public constant returns (uint) {\n        return price + insurance_price;\n    }\n    \n    function buy() public payable isObligee {\n        require(msg.value == buyPrice());\n        \n        principal.transfer(price);\n    }\n\n    function approveInsuranceClaim() public isInsurer {\n        obligee.transfer(price);\n        insurer.transfer(insurance_price);\n    }\n\n    function finish() public isInsurer {\n        if (instantiated_at + maturation_interval > now) {\n            insurer.transfer(this.balance);\n        }\n    }\n}\n",
  "sourcePath": "/Users/kjb/src/suretybond/contracts/SuretyBond.sol",
  "compiler": {
    "name": "solc",
    "version": "0.4.24+commit.e67f0147.Emscripten.clang"
  },
  "schemaVersion": "2.0.1",
  "updatedAt": "2018-08-17T19:32:53.226Z"
}